S0140000474731315F4D415833353130332E733337AF
S113000000000820210200004D0200004D02000003
S11300104D0200004D0200004D0200004D020000A0
S11300204D0200004D0200004D0200004D02000090
S11300304D0200004D0200004D0200004D02000080
S11300404D0200004D0200009D060000350B00002B
S11300504D020000BD4200004D0200004D020000B0
S11300604D0200004D0200004D0200004D02000050
S11300704D0200005D0B00004D0200004D02000027
S11300804D0200004D0200004D0200004D02000030
S11300904D0200004D0200004D0200004D02000020
S11300A04D0200004D0200004D0200004D02000010
S11300B04D0200004D0200004D020000C10E000080
S11300C04D0200004D0200004D0200004D020000F0
S11300D04D0200004D0200004D0200004D020000E0
S11300E04D0200004D0200004D0200004D020000D0
S11300F04D0200004D0200004D0200004D020000C0
S11301004D0200004D0200004D0200004D020000AF
S11301104D0200004D0200004D0200004D0200009F
S11301204D0200004D0200004D0200004D0200008F
S11301304D0200004D0200004D0200004D0200007F
S11301404D0200004D0200004D0200004D0200006F
S113015010B5054C237833B9044B13B10448AFF3FD
S113016000800123237010BDA001002000000000C6
S1130170DC720000084B10B51BB108480849AFF306
S113018000800848036803B910BD074B002BFBD05F
S1130190BDE81040184700BF00000000DC720000FA
S11301A0A40100209C01002000000000154B002B3E
S11301B008BF134B9D46A3F5803A00218B460F469A
S11301C01348144A121A07F00DF80F4B002B00D0F5
S11301D098470E4B002B00D09847002000210400C4
S11301E00D000D48002802D00C48AFF3008006F043
S11301F0D3FF2000290006F065FC06F0B9FF00BF1C
S113020000000800000008200000000000000000BA
S1130210A00100201C0800200000000000000000D5
S1130220064880470649074A074B9A42BEBF51F821
S1130230040B42F8040BF8E7FFF7B8FF31030000A2
S1130240E872000000000020A0010020FEE700BFCB
S113025080B582B000AF00F027F878600A4BD3F87D
S113026008210A4B13401B0A3B603B6801337A6840
S1130270B2FBF3F37B60064A7B6813607B68184625
S11302800837BD4680BD00BF00400E4000FF01009E
S11302900800002080B400AF024B1846BD465DF84C
S11302A0047B704700A24A0480B483B000AF164BAD
S11302B0D3F8943003F00703032B08D0042B02D0A7
S11302C0022B08D00BE0114B1B687B600BE04FF452
S11302D000437B6007E00E4B1B687B6003E00D4B23
S11302E01B687B6000BF084BD3F8003103F4F8535C
S11302F01B0A01337A68B2FBF3F318460C37BD4688
S11303005DF8047B704700BF00400E4004000020ED
S1130310000000200C00002080B400AF034B1B68D9
S11303201846BD465DF8047B704700BF00000020FE
S113033080B400AF054A054BD3F8883043F470030A
S1130340C2F88830BD465DF8047B704700ED00E0DC
S113035080B400AF4FF400431846BD465DF8047BFB
S1130360704700BF80B400AF4FF47A731846BD469F
S11303705DF8047B704700BF80B400AF034B1B687B
S11303801846BD465DF8047B704700BF040000209A
S113039080B584B000AF78603960214B1B7883F05E
S11303A00103DBB2002B01D01E4B34E07B68002B31
S11303B001D11D4B2FE005F02FFBB8600023FB603B
S11303C022E01A4AFB681B01134408331B7983F0AB
S11303D00103DBB2002B14D0FA687B681A60134A5D
S11303E0FB681B011344083301221A710F4AFB688E
S11303F01B01134400221A60B86805F01DFB00239A
S113040009E0FB680133FB60FB68172BD9DDB86892
S113041005F012FB064B18461037BD4680BD00BFE1
S1130420BC010020028000F0018000F0C001002027
S1130430048000F080B584B000AF194A3B1D1068F9
S1130440186000233B7105F0E7FAB860154B1B7880
S1130450002B04D0B86805F0EFFA134B1CE0114BE5
S113046001221A70B86805F0E7FA0023FB6009E07E
S11304700E4AFB681B011344083300221A71FB68FF
S11304800133FB60FB68172BF2DD0423FB713B1D7A
S1130490184605F09DFE002318461037BD4680BD62
S11304A010720000BC010020038000F0C001002095
S11304B080B58CB008AFF860B9607A603B607B6847
S11304C000933B680193002302933B7E0393FB69F3
S11304D0049397F8203005937B6A0693BB6A0793CD
S11304E000200021FA68BB6800F046F9034618466C
S11304F01037BD4680BD00BF80B58CB008AFF86032
S1130500B9607A603B607B6800933B680193002389
S113051002933B7E0393FB69049397F82030059381
S11305207B6A0693BB6A079300200121FA68BB68C3
S113053000F022F9034618461037BD4680BD00BFBF
S113054080B582B000AF7860124B1B7883F0010352
S1130550DBB2002B01D0104B17E07B68172B01D9BD
S11305600E4B12E00E4A7B681B01134408331B79BF
S113057083F00103DBB2002B01D00A4B05E07B685A
S11305801846002105F00EFE002318460837BD4624
S113059080BD00BFBC010020028000F0018000F09B
S11305A0C0010020078000F080B582B000AF786001
S11305B0124B1B7883F00103DBB2002B01D0104BEC
S11305C017E07B68172B01D90E4B12E00E4A7B68AB
S11305D01B01134408331B7983F00103DBB2002BA6
S11305E001D00A4B05E07B681846012105F0DAFDCD
S11305F0002318460837BD4680BD00BFBC0100205B
S1130600028000F0018000F0C0010020078000F0AB
S113061080B483B000AF786039601A4B1B7883F0E4
S11306200103DBB2002B01D0174B25E07B68172BAD
S113063002D83B68002B01D1144B1DE0144A7B689F
S11306401B01134408331B7983F00103DBB2002B35
S113065001D0104B10E0104B1B6A7A68012101FA9B
S113066002F21340002B03D03B6801221A7002E00F
S11306703B6800221A70002318460C37BD465DF80B
S1130680047B7047BC010020028000F0018000F070
S1130690C0010020078000F00020004080B586B033
S11306A000AF324B1B6EFB60304BDB6EFA681340BD
S11306B0FB60FB68002B00DAFEE700237B6101236B
S11306C03B614CE0FA683B691340002B41D0274A58
S11306D03B6993667B691B01254A1344BB60BB6875
S11306E01B68002B35D0BB689B685A1CBB689A609A
S11306F0BB681B68BA689168BA6852687869984799
S11307000346002B14BF01230023DBB283F0010353
S1130710DBB2FB71FB7903F00103FB71BB685B7B0C
S1130720012B16D1FB79002B13D0124A7B695B0194
S1130730134403F1080213796FF3410313710D4A53
S11307407B695B01134403F1180213796FF34103CE
S113075013717B6901337B613B695B003B617B699E
S1130760172BAFD91837BD4680BD00BF002000400D
S1130770C00100204003002090B58BB000AFBA60E8
S11307807B600346FB730B46BB73884B1B7883F07B
S11307900103DBB2002B01D0854B03E1BB68172BAF
S11307A00FD8BB6B002B0CD0FB6B002B09D0BB6CA0
S11307B0B3F5006F05DCFB7B012B04D13B6C002BF4
S11307C001D17C4BEEE0BB681B017B4A13447B6286
S11307D07B6A1B7B83F00103DBB2002B01D0774BD8
S11307E0E0E000233B6100233B7500237B7500237D
S11307F0BB750023FB7500233B7600237B76002327
S1130800BB760023FB7600233B7700237B77BB6812
S11308105B016B4A13443B62BB7B002B23D13B6AD5
S113082000221A60043300221A60043300221A6082
S1130830043300221A6004333A6A937843F01003B5
S113084093703A6AD37843F03003D37097F8443006
S113085083F00103DBB2002B28D03A6AD37843F04B
S11308600303D37022E03B6A00221A60043300229F
S11308701A60043300221A60043300221A6004331D
S11308803A6A937843F0100393703A6AD37843F04A
S11308900303D37097F8443083F00103DBB2002BD9
S11308A004D03A6AD37843F03003D3707B683B6159
S11308B0BB6C9BB2013B9BB2C3F30A0399B23A6A85
S11308C0138861F30E131380BA6B3B6A9A60FA6B58
S11308D03B6A5A6097F84C3003F00303D9B23A6A82
S11308E0D37861F38303D370FB7B012B3AD13A6A4B
S11308F0137B43F0010313733A6A137B43F002033F
S113090013733A6AD368042161F39F03D3602C4ABA
S1130910BB685B01134403F110023B6A14460FCB1E
S113092084E80F00264ABB685B01134403F11802F4
S113093053686FF0030161F39F0353603A6C2049DD
S1130940BB685B010B4410335A60BB7B012B09D19C
S1130950FA6B1B49BB685B010B4418331A603A6C91
S11309603B6A5A603B6D002B07D1FB7B002B04D103
S11309703A6A93786FF3041393707B6A3A6D1A6042
S11309807B6A7A6D5A607B6A00229A607B6AFA7B82
S11309905A73BA6807F11003104619463A6A05F00B
S11309A04FFC002318462C37BD4690BDBC010020E7
S11309B0028000F0018000F0C0010020078000F0F8
S11309C04003002080B483B000AF0346FB710849A4
S11309D097F907305B09FA7902F01F02012000FA47
S11309E002F241F823200C37BD465DF8047B7047C2
S11309F000E100E080B483B000AF0346FB71094915
S1130A0097F907305B09FA7902F01F02012000FA16
S1130A1002F2603341F823200C37BD465DF8047BB5
S1130A20704700BF00E100E080B483B000AF78609D
S1130A30044A7B68C2F824340C37BD465DF8047B55
S1130A40704700BF0080084080B483B000AF074BFC
S1130A50D3F828347B60054BD3F81C247B681340FF
S1130A6018460C37BD465DF8047B7047008008408B
S1130A7080B485B000AF78607B68FB60FB6893FA54
S1130A80A3F3BB60BB68B3FA83F318461437BD46BF
S1130A905DF8047B704700BF80B500AF0D20FFF701
S1130AA0A9FF0D20FFF78EFF0320FFF7A3FF03200C
S1130AB0FFF788FF80BD00BF80B584B000AF034658
S1130AC03960FB7104F0A8FFF860FB7904493A68C7
S1130AD041F82320F86804F0AFFF1037BD4680BD0D
S1130AE04006002080B584B000AF786019E07868D3
S1130AF0FFF7BEFFF860FB68012202FA03F3DB4351
S1130B001A467B6813407B60094AFB6852F823301D
S1130B10BB60BB68002B04D0FB68DAB2BB6810462C
S1130B2098477B68002BE2D11037BD4680BD00BFDB
S1130B304006002080B582B000AFFFF785FF024673
S1130B4045F2555313407B607868FFF76DFF786872
S1130B50FFF7C8FF0837BD4680BD00BF80B582B02F
S1130B6000AFFFF771FF02464AF6AA2313407B60E9
S1130B707868FFF759FF7868FFF7B4FF0837BD4678
S1130B8080BD00BF80B483B000AF0346FB71084949
S1130B9097F907305B09FA7902F01F02012000FA85
S1130BA002F241F823200C37BD465DF8047B704700
S1130BB000E100E080B483B000AF0346FB71094953
S1130BC097F907305B09FA7902F01F02012000FA55
S1130BD002F2603341F823200C37BD465DF8047BF4
S1130BE0704700BF00E100E080B485B000AF7860DA
S1130BF07B68002B04D07B68B3F5004F00D800BF9E
S1130C007B68B3FA83F3C3F11F03FB60FB681846E8
S1130C101437BD465DF8047B704700BF80B483B0D1
S1130C2000AF7860054A7B6804331B0113445B689A
S1130C3018460C37BD465DF8047B7047002006401B
S1130C4080B483B000AF78603960064A7B680433AF
S1130C501B0113443A685A600C37BD465DF8047BA7
S1130C60704700BF0020064080B400AF034B9B6870
S1130C701846BD465DF8047B704700BF002006405F
S1130C8080B483B000AF7860034A7B6813620C378A
S1130C90BD465DF8047B70470020064080B483B0F5
S1130CA000AF78600549054B5A6A7B68DB43134003
S1130CB04B620C37BD465DF8047B7047002006404C
S1130CC080B483B000AF78600549054B5A6A7B68ED
S1130CD013434B620C37BD465DF8047B704700BF7D
S1130CE00020064080B483B000AF064B5B6A7B6093
S1130CF0044B9A697B68134018460C37BD465DF86F
S1130D00047B70470020064080B586B000AF786051
S1130D1000237B6100233B6104F07EFEF86002E067
S1130D207B6901337B617B69032B0ADC16497A6991
S1130D3013469B001344DB000B4418339B79002BB0
S1130D40EED17B69042B02D1104B3B6114E07B682C
S1130D50002B0FD00C497A6913469B001344DB0027
S1130D600B44183301229A717A697B681A60002354
S1130D703B6101E0064B3B61F86804F05DFE3B69B2
S1130D8018461837BD4680BD80060020011000F0CB
S1130D90041000F080B500AF224B1B78002B01D06B
S1130DA000233CE01F4B01221A701F48012103F06D
S1130DB02BFE1E48022104F0B1F90820FFF714FFAE
S1130DC00346DAB21A4B1A711A48012103F01CFEC9
S1130DD0174805F03BFB0120174905F009FB40F2D9
S1130DE0FF70FFF75BFF40F2FF70FFF749FF134B03
S1130DF000229A601F20FFF7DDFE1F20FFF7C2FECE
S1130E000F480021A02206F0EDF90E4B00221A70C3
S1130E100D4B00221A700D4B00221A600023184655
S1130E2080BD00BF2A07002000050800050020003F
S1130E3010000020800912001C0000200020064041
S1130E40800600202807002029070020240700200E
S1130E5080B584B000AF78607B68032B01D9154B53
S1130E6023E004F0D9FDF86013497A6813469B0027
S1130E701344DB000B4418339B7983F00103DBB28A
S1130E80002B04D0F86804F0D7FD0C4B0DE00A49A0
S1130E907A6813469B001344DB000B44183300228A
S1130EA01A71F86804F0C8FD002318461037BD46CF
S1130EB080BD00BF021000F080060020031000F087
S1130EC080B586B000AF04F0A7FD3861FFF70AFFD4
S1130ED0F860FB6823F005031846FFF7D1FEFB68B2
S1130EE003F00403002B30D01B4B01221A70FFF7D0
S1130EF0BBFE78610420FFF7D1FE184B1B687A69AA
S1130F00D31ABB60B86800F02DF800F08FF9786947
S1130F1000F0BEF9FFF7A8FE7861104B1B687A69F0
S1130F20D31ABB600120FFF779FE02460B4B1B6806
S1130F30D31A7B600A4B1B78002B03D0BA687B68FA
S1130F409A42D7D8044B00221A70386904F074FD11
S1130F501837BD4680BD00BF2807002020070020A9
S1130F6029070020B0B586B000AF786000237B610C
S1130F7053E1AD497A6913469B001344DB000B44EB
S1130F80183300225A71A8497A6913469B00134406
S1130F90DB000B4418331B79002B00F03B81A24982
S1130FA07A6913469B001344DB000B44D3E9002306
S1130FB0796808464FF00001994208BF904219D25F
S1130FC099497A6913469B001344DB000B44D3E927
S1130FD000017B681A464FF00003801A61EB03019D
S1130FE0914C7A6913469B001344DB002344C3E904
S1130FF000010FE18C497A6913469B001344DB001E
S11310000B441833DB79002B0AD187497A691346DC
S11310109B001344DB000B44183300221A71E4E0F4
S11310207B6818464FF000017F4C7A6913469B0099
S11310301344DB002344D3E90023821A61EB030346
S1131040C7E9022378497A6913469B001344DB00FD
S11310500B440833D3E9004573497A6913469B006E
S11310601344DB000B440833D3E90023D7E902011E
S113107005F0B0FD20462946801A61EB03016A4C55
S11310807A6913469B001344DB002344C3E900013F
S113109065497A6913469B001344DB000B44103303
S11310A01B68002B50DD60497A6913469B0013448A
S11310B0DB000B44103359685B487A6913469B0084
S11310C01344DB00034410331B68194456487A69FF
S11310D013469B001344DB00034410335960524908
S11310E07A6913469B001344DB000B4410335B689E
S11310F0F32B7AD94C497A6913469B001344DB00DD
S11311000B44D3E90023501C43F10001464C7A6997
S113111013469B001344DB002344C3E90001424906
S11311207A6913469B001344DB000B4410335B685D
S1131130A3F1F4013C487A6913469B001344DB0095
S113114003441033596050E037497A6913469B00D1
S11311501344DB000B441033596833487A6913464F
S11311609B001344DB00034410331B68C91A2E4848
S11311707A6913469B001344DB000344103359601F
S113118029497A6913469B001344DB000B4410334E
S11311905B68F32B29D924497A6913469B001344CD
S11311A0DB000B44D3E9002312F1FF3043F1FF319C
S11311B01D4C7A6913469B001344DB002344C3E9A6
S11311C0000119497A6913469B001344DB000B4460
S11311D010335B68A3F1F40113487A6913469B004A
S11311E01344DB000344103359600F497A691346F2
S11311F09B001344DB000B4418331B68002B09D0FD
S113120009497A6913469B001344DB000B441833E5
S113121001225A717B6901337B617B69032B7FF760
S1131220A8AE1837BD46B0BD8006002090B583B087
S113123000AF00237B6022E014497A6813469B00C8
S11312401344DB000B4418335B79002B14D00F4993
S11312507A6813469B001344DB000B4418331C6864
S113126078680A497A6813469B001344DB000B44F0
S113127020331B681946A0477B6801337B607B6879
S1131280032BD9DD0C37BD4690BD00BF800600207E
S113129080B58AB000AF78604FF0FF324FF0FF3373
S11312A0C7E9062300237B6227E030497A6A1346A4
S11312B09B001344DB000B4418331B79002B19D01B
S11312C02A497A6A13469B001344DB000B44D3E992
S11312D00001D7E90623994208BF90420AD2234964
S11312E07A6A13469B001344DB000B44D3E90023C2
S11312F0C7E906237B6A01337B627B6A032BD4DD57
S11313001B4B00221A70D7E90623B3F1FF3F08BF35
S1131310B2F1FF3F27D0D7E90623C7E904236FF0D2
S11313206403FB60FB681A464FF00003D7E904012D
S1131330994208BF904201D202460B46C7E90623F0
S11313400C4A7B6813600420FFF79AFCBA697B6837
S1131350134401201946FFF773FC054B01221A7050
S11313600420FFF7ADFC2837BD4680BD8006002071
S11313702907002020070020B0B58AB000AF7860AC
S113138039609A4B07F108041D460FCD0FC495E848
S1131390030084E803007B68002B01D1944B7FE1B8
S11313A03B68002B01D1934B7AE1786800215822E5
S11313B005F018FF3B681B688F4A93420AD17B688B
S11313C08E4ADA647B688E4A5A627B684FF4402204
S11313D09A6251E03B681B688A4A93420AD17B684F
S11313E0894ADA647B68894A5A627B684FF45022DE
S11313F09A6241E03B681B68854A93420AD17B6844
S1131400844ADA647B68844A5A627B684FF46022B7
S11314109A6231E03B681B68804A93420AD17B6838
S11314207F4ADA647B687F4A5A627B684FF4702291
S11314309A6221E03B681B687B4A93420AD17B682D
S11314407A4ADA647B687A4A5A627B684FF480127B
S11314509A6211E03B681B68764A93420AD17B6822
S1131460754ADA647B68754A5A627B684FF488125D
S11314709A6201E05F4B13E17A683B6814461D46AB
S11314800FCD0FC495E8070084E807003B685B7D37
S1131490012B01D10123BB753B689B7D002B02D13D
S11314A000233B8319E03B689B7D012B03D14FF460
S11314B000733B8311E03B689B7D022B03D14FF407
S11314C080733B8309E03B689B7D032B03D14FF47E
S11314D040733B8301E0474BE2E03B681B7D012BFB
S11314E005D100237B754FF47A733B6102E03B68BE
S11314F09B683B615248012103F086FA514801215F
S113150003F082FA7B68DB6C1846012103F07CFA55
S11315103B681A6807F108031046194605F00EF9EE
S11315203B681B7D002B0BD13B68DB7D002B07D177
S11315303B681B683A681268126842F480321A6089
S11315403B68DB7D002B1BD13B681B680F225A676D
S11315503B681B683A681268926F02F0F832396887
S1131560097909020A43396849790A43396889794A
S113157009060A433968C97909040A439A6718E0D5
S11315803B681B680B225A673B681A683B681B68F8
S11315909B6F23F0072323F00703396809790902B5
S11315A00B43396849790B433968897909060B4338
S11315B093677868012100F0EBF878627B6A002B6E
S11315C001D07B6A6CE004F027FA38621E4B1B786A
S11315D083F00103DBB2002B38D01B4B01221A70BD
S11315E0386A04F029FAFFF7D5FB32E014720000E0
S11315F0012000F0022000F000000140007204000D
S113160001000C00000401400082040001000D00F0
S1131610000801400092040001000E00000C01408B
S113162000A2040001000F000010014000B20400F9
S1131630010010000014014000C204000100110068
S113164040410500005508002B070020386A04F0CB
S1131650F3F93B681B7D012B09D17B685433184691
S1131660FFF752FB0346002B01D00F4B18E0FEF7A7
S1131670E1FE7B681C3318460021FEF789FE034611
S1131680002B01D0094B0BE07B6820331846002166
S1131690FEF77EFE0346002B01D0044B00E000233E
S11316A018462837BD46B0BD042000F0092000F0DC
S11316B080B588B002AFF860B9607A603B60FB68BF
S11316C01B7D012B01D1114B1CE0F868B9683A6805
S11316D001F08AF978617B69002B01D07B6911E004
S11316E07B68002B01D10A4B0CE00A4B0093F8688D
S11316F0B9687A683B6801F0B3F8F86801F0ACF9AE
S1131700FB685B6C18461837BD4680BD082000F0A6
S1131710022000F06D17000080B586B000AFF860BD
S1131720B9607A60FB681B7D012B01D10D4B15E07C
S1131730F868B9687A6801F057F978617B69002B19
S113174001D07B690AE0F868B9687A68064B01F051
S1131750E9F8F86801F080F9FB685B6C1846183703
S1131760BD4680BD082000F06D17000080B485B030
S113177000AFF860B9607A60FB68BA685A64FB68C5
S1131780012283F850201437BD465DF8047B70476E
S113179080B58AB000AF78600B46FB707B68FB6055
S11317A07B681B68994A934240F06E81FB681B7901
S11317B0002B26D0FB681B79012B20D0FB681B79FA
S11317C0022B1AD0FB681B79032B14D0FB681B79FE
S11317D0042B0ED0FB681B79052B08D0FB681B7902
S11317E0062B01D106230DE04FF0FF330AE002235C
S11317F008E0012306E0042304E0022302E00423BA
S113180000E00423BB61FB685B79002B26D0FB68F6
S11318105B79012B20D0FB685B79022B1AD0FB6823
S11318205B79032B14D0FB685B79042B0ED0FB6827
S11318305B79052B08D0FB685B79062B01D1062365
S11318400DE04FF0FF330AE0022308E0012306E035
S1131850042304E0022302E0042300E004237B6168
S1131860FB689B79002B26D0FB689B79012B20D049
S1131870FB689B79022B1AD0FB689B79032B14D04D
S1131880FB689B79042B0ED0FB689B79052B08D051
S1131890FB689B79062B01D106230DE04FF0FF3343
S11318A00AE0002308E0012306E0022304E0022307
S11318B002E0042300E004233B61FB68DB79002B96
S11318C026D0FB68DB79012B20D0FB68DB79022B67
S11318D01AD0FB68DB79032B14D0FB68DB79042B6B
S11318E00ED0FB68DB79052B08D0FB68DB79062B6F
S11318F001D106230DE04FF0FF330AE0002308E096
S1131900012306E0022304E0022302E0042300E0B2
S113191004237A68D363FB681B79002B26D0FB6809
S11319201B79012B20D0FB681B79022B1AD0FB6892
S11319301B79032B14D0FB681B79042B0ED0FB6896
S11319401B79052B08D0FB681B79062B01D10C23CE
S11319500DE04FF0FF330AE0002308E0072306E020
S11319600D2304E00B2302E0072300E00A237B623B
S1131970FB685B79002B26D0FB685B79012B20D0B8
S1131980FB685B79022B1AD0FB685B79032B14D0BC
S1131990FB685B79042B0ED0FB685B79052B08D0C0
S11319A0FB685B79062B01D10D230DE04FF0FF336B
S11319B00AE0012308E0082306E00C2304E00A23DC
S11319C002E0062300E00B233B62FB689B79002BBB
S11319D028D0FB689B79012B22D0FB689B79022BD2
S11319E01CD0FB689B79032B16D0FB689B79042BD6
S11319F010D0FB689B79052B0AD0FB689B79062BDA
S1131A0001D10E230FE04FF0FF330CE00000014042
S1131A100C2308E00D2306E00F2304E0092302E071
S1131A20052300E00C23FB61FB68DB79002B26D047
S1131A30FB68DB79012B20D0FB68DB79022B1AD001
S1131A40FB68DB79032B14D0FB68DB79042B0ED005
S1131A50FB68DB79052B08D0FB68DB79062B01D109
S1131A600F230DE04FF0FF330AE00D2308E00E23AF
S1131A7006E00E2304E0082302E0042300E00D2323
S1131A807A68136400F0F4BD7B681B68994A93423A
S1131A9040F06E81FB681B79002B26D0FB681B7914
S1131AA0012B20D0FB681B79022B1AD0FB681B7911
S1131AB0032B14D0FB681B79042B0ED0FB681B7915
S1131AC0052B08D0FB681B79062B01D100230DE000
S1131AD04FF0FF330AE0052308E0022306E0052364
S1131AE004E0032302E0032300E00223BB61FB685C
S1131AF05B79002B26D0FB685B79012B20D0FB6837
S1131B005B79022B1AD0FB685B79032B14D0FB683A
S1131B105B79042B0ED0FB685B79052B08D0FB683E
S1131B205B79062B01D100230DE04FF0FF330AE06F
S1131B30002308E0022306E0052304E0032302E077
S1131B40032300E002237B61FB689B79002B26D0F2
S1131B50FB689B79012B20D0FB689B79022B1AD060
S1131B60FB689B79032B14D0FB689B79042B0ED064
S1131B70FB689B79052B08D0FB689B79062B01D168
S1131B8004230DE04FF0FF330AE0012308E00223B1
S1131B9006E0022304E0052302E0032300E001231E
S1131BA03B61FB68DB79002B26D0FB68DB79012BDA
S1131BB020D0FB68DB79022B1AD0FB68DB79032B7E
S1131BC014D0FB68DB79042B0ED0FB68DB79052B82
S1131BD008D0FB68DB79062B01D101230DE04FF01F
S1131BE0FF330AE0042308E0022306E0022304E0B2
S1131BF0052302E0032300E001237A68D363FB6832
S1131C001B79002B26D0FB681B79012B20D0FB68A5
S1131C101B79022B1AD0FB681B79032B14D0FB68A9
S1131C201B79042B0ED0FB681B79052B08D0FB68AD
S1131C301B79062B01D10E230DE04FF0FF330AE090
S1131C40022308E0012306E0062304E0072302E060
S1131C50002300E000237B62FB685B79002B26D025
S1131C60FB685B79012B20D0FB685B79022B1AD0CF
S1131C70FB685B79032B14D0FB685B79042B0ED0D3
S1131C80FB685B79052B08D0FB685B79062B01D1D7
S1131C9002230DE04FF0FF330AE0002308E00223A3
S1131CA006E0072304E0062302E0012300E0012309
S1131CB03B62FB689B79002B28D0FB689B79012B46
S1131CC022D0FB689B79022B1CD0FB689B79032BE9
S1131CD016D0FB689B79042B10D0FB689B79052BED
S1131CE00AD0FB689B79062B01D105230FE04FF046
S1131CF0FF330CE0000401400B2308E0032306E05B
S1131D000F2304E0002302E0022300E00723FB6129
S1131D10FB68DB79002B26D0FB68DB79012B20D014
S1131D20FB68DB79022B1AD0FB68DB79032B14D018
S1131D30FB68DB79042B0ED0FB68DB79052B08D01C
S1131D40FB68DB79062B01D102230DE04FF0FF3352
S1131D500AE0042308E0002306E00E2304E0012344
S1131D6002E0032300E008237A68136400F080BCD7
S1131D707B681B689A4A934240F03E81FB681B795A
S1131D80002B20D0FB681B79012B1AD0FB681B7930
S1131D90022B14D0FB681B79032B0ED0FB681B7934
S1131DA0042B08D0FB681B79052B01D105230BE01C
S1131DB04FF0FF3308E0052306E0002304E000238E
S1131DC002E0012300E00223BB61FB685B79002B86
S1131DD020D0FB685B79012B1AD0FB685B79022B5E
S1131DE014D0FB685B79032B0ED0FB685B79042B62
S1131DF008D0FB685B79052B01D105230BE04FF07C
S1131E00FF3308E0052306E0002304E0002302E09A
S1131E10012300E002237B61FB689B79002B20D027
S1131E20FB689B79012B1AD0FB689B79022B14D099
S1131E30FB689B79032B0ED0FB689B79042B08D09D
S1131E40FB689B79052B01D105230BE04FF0FF3391
S1131E5008E0052306E0002304E0002302E0012358
S1131E6000E002233B61FB68DB79002B20D0FB6898
S1131E70DB79012B1AD0FB68DB79022B14D0FB68C9
S1131E80DB79032B0ED0FB68DB79042B08D0FB68CD
S1131E90DB79052B01D105230BE04FF0FF3308E07C
S1131EA0052306E0012304E0002302E0012300E00F
S1131EB002237A68D363FB681B79002B20D0FB686C
S1131EC01B79012B1AD0FB681B79022B14D0FB68F9
S1131ED01B79032B0ED0FB681B79042B08D0FB68FD
S1131EE01B79052B01D100230BE04FF0FF3308E0F1
S1131EF0062306E00D2304E0072302E0032300E0A9
S1131F0002237B62FB685B79002B20D0FB685B7942
S1131F10012B1AD0FB685B79022B14D0FB685B7928
S1131F20032B0ED0FB685B79042B08D0FB685B792C
S1131F30052B01D101230BE04FF0FF3308E0072309
S1131F4006E00E2304E0082302E0042300E0032358
S1131F503B62FB689B79002B20D0FB689B79012BAB
S1131F601AD0FB689B79022B14D0FB689B79032B56
S1131F700ED0FB689B79042B08D0FB689B79052B5A
S1131F8001D102230BE04FF0FF3308E0082306E001
S1131F900F2304E0092302E0052300E00423FB618E
S1131FA0FB68DB79002B23D0FB68DB79012B1DD088
S1131FB0FB68DB79022B17D0FB68DB79032B11D08C
S1131FC0FB68DB79042B08D0FB68DB79052B01D196
S1131FD005230EE04FF0FF330BE0092309E000BFB7
S1131FE0000801400B2304E00A2302E0062300E07A
S1131FF005237A6813643BE37B681B689A4A93421F
S113200040F03E81FB681B79002B20D0FB681B79D4
S1132010012B1AD0FB681B79022B14D0FB681B79A7
S1132020032B0ED0FB681B79042B08D0FB681B79AB
S1132030052B01D108230BE04FF0FF3308E0062302
S113204006E0062304E0012302E0042300E0002369
S1132050BB61FB685B79002B20D0FB685B79012BAB
S11320601AD0FB685B79022B14D0FB685B79032BD5
S11320700ED0FB685B79042B08D0FB685B79052BD9
S113208001D108230BE04FF0FF3308E0062306E0FC
S1132090062304E0012302E0042300E000237B6123
S11320A0FB689B79002B20D0FB689B79012B1AD00D
S11320B0FB689B79022B14D0FB689B79032B0ED011
S11320C0FB689B79042B08D0FB689B79052B01D115
S11320D008230BE04FF0FF3308E0062306E0062355
S11320E004E0032302E0032300E000233B61FB68D8
S11320F0DB79002B20D0FB68DB79012B1AD0FB683D
S1132100DB79022B14D0FB68DB79032B0ED0FB6840
S1132110DB79042B08D0FB68DB79052B01D108237C
S11321200BE04FF0FF3308E0062306E0022304E04F
S1132130022302E0042300E000237A68D363FB68EF
S11321401B79002B20D0FB681B79012B1AD0FB686C
S11321501B79022B14D0FB681B79032B0ED0FB6870
S11321601B79042B08D0FB681B79052B01D10C23A8
S11321700BE04FF0FF3308E0002306E0062304E001
S1132180032302E0062300E000237B62FB685B7903
S1132190002B20D0FB685B79012B1AD0FB685B799C
S11321A0022B14D0FB685B79032B0ED0FB685B79A0
S11321B0042B08D0FB685B79052B01D10D230BE0C0
S11321C04FF0FF3308E0012306E0072304E0072370
S11321D002E0072300E001233B62FB689B79002BAC
S11321E020D0FB689B79012B1AD0FB689B79022BCA
S11321F014D0FB689B79032B0ED0FB689B79042BCE
S113220008D0FB689B79052B01D10E230BE04FF01E
S1132210FF3308E0022306E0082304E0042302E07D
S1132220072300E00223FB61FB68DB79002B23D04A
S1132230FB68DB79012B1DD0FB68DB79022B17D0FF
S1132240FB68DB79032B11D0FB68DB79042B08D006
S1132250FB68DB79052B01D10F230EE04FF0FF3330
S11322600BE0032309E000BF000C0140002304E05D
S11322700E2302E0042300E003237A681364F7E1E9
S11322807B681B68964A934240F00B81FB681B797C
S1132290002B1AD0FB681B79012B14D0FB681B7927
S11322A0022B0ED0FB681B79032B08D0FB681B792B
S11322B0042B01D1072309E04FF0FF3306E0082384
S11322C004E0082302E0032300E00123BB61FB6870
S11322D05B79002B1AD0FB685B79012B14D0FB6867
S11322E05B79022B0ED0FB685B79032B08D0FB686B
S11322F05B79042B01D1072309E04FF0FF3306E09B
S1132300082304E0082302E0032300E001237B61A7
S1132310FB689B79002B1AD0FB689B79012B14D0A6
S1132320FB689B79022B0ED0FB689B79032B08D0AA
S1132330FB689B79042B01D1072309E04FF0FF339D
S113234006E0082304E0082302E0032300E002235C
S11323503B61FB68DB79002B1AD0FB68DB79012B2E
S113236014D0FB68DB79022B0ED0FB68DB79032BDE
S113237008D0FB68DB79042B01D1072309E04FF077
S1132380FF3306E0082304E0082302E0032300E00F
S113239002237A68D363FB681B79002B1AD0FB688D
S11323A01B79012B14D0FB681B79022B0ED0FB6820
S11323B01B79032B08D0FB681B79042B01D1042360
S11323C009E04FF0FF3306E0062304E0002302E0B7
S11323D0092300E007237B62FB685B79002B1AD09A
S11323E0FB685B79012B14D0FB685B79022B0ED060
S11323F0FB685B79032B08D0FB685B79042B01D164
S1132400052309E04FF0FF3306E0072304E001232E
S113241002E00A2300E008233B62FB689B79002B5F
S11324201AD0FB689B79012B14D0FB689B79022B93
S11324300ED0FB689B79032B08D0FB689B79042B97
S113244001D1062309E04FF0FF3306E0082304E03E
S1132450022302E00B2300E00423FB61FB68DB7929
S1132460002B1AD0FB68DB79012B14D0FB68DB79D5
S1132470022B0ED0FB68DB79032B08D0FB68DB79D9
S1132480042B01D1072309E04FF0FF3306E00923B1
S113249004E0032302E00C2300E005237A681364BC
S11324A0E6E07B681B680F4A934240F0DF80FB68DC
S11324B01B79002B18D0FB681B79012B0ED0FB680D
S11324C01B79022B08D0FB681B79032B01D107234E
S11324D00BE04FF0FF3308E0052306E0002304E09F
S11324E000100140001401400423BB61FB685B79C8
S11324F0002B14D0FB685B79012B0ED0FB685B7951
S1132500022B08D0FB685B79032B01D1072307E07A
S11325104FF0FF3304E0012302E0002300E0042332
S11325207B61FB689B79002B14D0FB689B79012BA2
S11325300ED0FB689B79022B08D0FB689B79032B98
S113254001D1072307E04FF0FF3304E0052302E045
S1132550032300E001233B61FB68DB79002B14D0EB
S1132560FB68DB79012B0ED0FB68DB79022B08D0EA
S1132570FB68DB79032B01D1072307E04FF0FF331E
S113258004E0052302E0032300E001237A68D36317
S1132590FB681B79002B14D0FB681B79012B0ED030
S11325A0FB681B79022B08D0FB681B79032B01D134
S11325B00A2307E04FF0FF3304E00F2302E0062371
S11325C000E008237B62FB685B79002B14D0FB6876
S11325D05B79012B0ED0FB685B79022B08D0FB687A
S11325E05B79032B01D10B2307E04FF0FF3304E0A9
S11325F0012302E0072300E009233B62FB689B7987
S1132600002B14D0FB689B79012B0ED0FB689B79BF
S1132610022B08D0FB689B79032B01D10C2307E024
S11326204FF0FF3304E00D2302E00D2300E00B2301
S1132630FB61FB68DB79002B14D0FB68DB79012B91
S11326400ED0FB68DB79022B08D0FB68DB79032B07
S113265001D10D2307E04FF0FF3304E00C2302E027
S11326600E2300E00D237A68136401E0624BBEE0A0
S1132670FB78002B7ED07B681B7D002B3DD1BB6992
S1132680DAB27B6A104619460422002303F076FC72
S11326907B69DAB23B6A104619460222002303F032
S11326A06DFC7B689B7D002B03D07B689B7D012B9D
S11326B009D13B69DAB2FB691046194604220023AA
S11326C003F05CFC08E03B69DAB2FB69104619468A
S11326D00422012303F052FC7B68DB7D002B40F0D5
S11326E085807B68DB6BDAB27B681B6C104619460D
S11326F00422012303F042FC78E0BB69DAB27B6A6E
S1132700104619460222002303F038FC7B69DAB232
S11327103B6A104619460422002303F02FFC7B6811
S11327209B7D002B03D07B689B7D012B09D13B69EA
S1132730DAB2FB69104619460222002303F01EFC9C
S113274008E03B69DAB2FB6910461946022201230C
S113275003F014FC7B68DB7D002B47D17B68DB6BCB
S1132760DAB27B681B6C104619460222012303F07F
S113277005FC3BE0BB69DAB27B6A104619460222CB
S1132780002303F0FBFB7B69DAB23B6A104619466F
S11327900222002303F0F2FB7B689B7D002B03D015
S11327A07B689B7D012B09D13B69DAB2FB6910463A
S11327B019460222002303F0E1FB08E03B69DAB288
S11327C0FB69104619460222012303F0D7FB7B68FC
S11327D0DB7D002B0AD17B68DB6BDAB27B681B6C78
S11327E0104619460022002303F0C8FB00231846B4
S11327F02837BD4680BD00BF022000F080B586B0FA
S113280000AFF860B9607A6003F006F978617B681C
S11328103B613B6900225A643B69002283F84820EB
S11328203B6900229A633B691B7D012B04D13B6900
S11328305B6D1846FEF70CFB3B69DB6A002B06D088
S11328403B69DB6A3A69526B3869002198477869B9
S113285003F0F2F8012318461837BD4680BD00BFC7
S113286080B58EB006AFF860B9607A603B60FB68F3
S1132870002283F85020FB683A685A63FB681B689F
S11328804FF44062DA60FB68BA6ADA62FB68DB68BC
S1132890082B02D90123FB7501E00023FB75FB68BB
S11328A0DB68082B08D9FB681B682433FB61FB68D1
S11328B01B683C33BB6107E0FB681B681C33FB618E
S11328C0FB681B683433BB61FB68196AFB689A6A4E
S11328D0012300933B680193FB7D0293104B039308
S11328E0FB680493084611467A68FB69FDF704FE09
S11328F0FB68D969FB685A6A012300933B6801931A
S1132900FB7D02930023039300230493084611469E
S1132910BA69BB68FDF7CCFD2037BD4680BD00BF5A
S1132920FD27000080B58EB006AFF860B9607A600C
S11329303B60FB68002283F85020FB687A685A6386
S1132940FB681B684FF44062DA60FB683A68DA623D
S1132950FB68DB68082B02D90123FB7501E0002327
S1132960FB75FB68DB68082B08D9FB681B682433FC
S1132970FB61FB681B683C33BB6107E0FB681B68B9
S11329801C33FB61FB681B683433BB61FB68186A4A
S1132990FB68996AFB6803F13002002300937B68AB
S11329A00193FB7D02930F4B0393FB680493FB6934
S11329B0FDF7A2FDFB68D969FB685A6A01230093FD
S11329C07B680193FB7D029300230393002304930C
S11329D008461146BA69BB68FDF76AFD2037BD4653
S11329E080BD00BFFD27000080B586B000AFF86051
S11329F0B9607A60FB68002B01D1144B21E0BB68FD
S1132A00002B06D07B68002B03D07B68B3F5006FE6
S1132A1001DD0F4B15E002F0FFFF7861FB6893F8CE
S1132A204830DBB2002B04D0786903F005F8094B79
S1132A3007E0FB68012283F84820786902F0FCFF74
S1132A40002318461837BD4680BD00BF012000F0A2
S1132A50022000F0032000F080B582B000AF78605F
S1132A60022002F0F7FF0346002B0CD001E0FDF733
S1132A7015FE7B6893F85030DBB283F00103DBB2C0
S1132A80002BF4D109E000BF7B6893F85030DBB22F
S1132A9083F00103DBB2002BF6D10837BD4680BDBD
S1132AA080B483B000AF786039607B683A689A6418
S1132AB00C37BD465DF8047B704700BF80B485B019
S1132AC000AF786039607B6803F10473DA003B6817
S1132AD013449B00FB60FB681B6818461437BD4613
S1132AE05DF8047B704700BF80B485B000AF7860A8
S1132AF039607B6803F1C063FB60FB683A681A6065
S1132B001437BD465DF8047B704700BF80B485B0C0
S1132B1000AF786039607B6803F18063FB60FB6819
S1132B203A681A601437BD465DF8047B704700BFED
S1132B3080B582B000AF03463960FB71FB79002B8E
S1132B4016D0FB79012B13D0FB79022B10D0FB7923
S1132B50032B0DD0FB79042B0AD0FB79052B07D06E
S1132B60FB79062B04D0FB79072B01D0FB79082BCA
S1132B70FA7913465B0013441B011C3303F18043B1
S1132B8003F5082318463968FFF798FF03461846EB
S1132B900837BD4680BD00BF80B582B000AF034694
S1132BA03960FB71FB79002B16D0FB79012B13D014
S1132BB0FB79022B10D0FB79032B0DD0FB79042B6E
S1132BC00AD0FB79052B07D0FB79062B04D0FB79BF
S1132BD0072B01D0FB79082BFA7913465B001344C9
S1132BE01B010C3303F1804303F508233A680121E8
S1132BF001FA02F218461146FFF788FF0837BD466E
S1132C0080BD00BF80B582B000AF03463960FB7160
S1132C10FB79002B16D0FB79012B13D0FB79022B07
S1132C2010D0FB79032B0DD0FB79042B0AD0FB7950
S1132C30052B07D0FB79062B04D0FB79072B01D099
S1132C40FB79082BFA7913465B0013441B010C3300
S1132C5003F1804303F508233A68012101FA02F2E3
S1132C6018461146FFF740FF0837BD4680BD00BF38
S1132C7090B585B002AF396011461A460346FB7120
S1132C800B46BB7113467B71FA79BC797B7900934F
S1132C903B7E0193104639683A68234603F0D2F824
S1132CA00C37BD4690BD00BF80B485B000AF7860DE
S1132CB00023FB6010E00D4AFB6852F823305B7F71
S1132CC01A467B689A4204D1084AFB6852F82330BA
S1132CD006E0FB680133FB60FB68032BEBD90023A0
S1132CE018461437BD465DF8047B70473007002052
S1132CF080B582B000AF78607B6893F83130022BE6
S1132D000AD17B685A7E7B685B7F10461946FFF7C1
S1132D100FFF0346DBB200E0002318460837BD4628
S1132D2080BD00BF80B586B000AF0346FB71FB7960
S1132D301846FFF7B9FF78617B69002B3ED07B69A9
S1132D4093F83130022B39D17869FFF7D1FF03466C
S1132D501A467B691A757B695B7D022B2ED17B69D0
S1132D6093F82E30DBB2002B28D10023FB737B6950
S1132D705A6807F10F0310461946FDF749FC3861FC
S1132D807B691B7D002B04D07B6993F82F30002BCB
S1132D9009D07B69002283F82F207B695B68184681
S1132DA0FDF702FC0AE03B69002B07D1FB7B002BFB
S1132DB004D07B695B681846FDF7C2FB1837BD4633
S1132DC080BD00BF80B584B000AF78607B6893F8A5
S1132DD03130022B2FD17B685B7D002B08D17B68BF
S1132DE09A7E7B689B7F10461946FFF7D5FE4AE022
S1132DF07B685B7D012B08D17B689A7E7B689B7F17
S1132E0010461946FFF7FEFE3DE07B681B7D002B54
S1132E1008D17B689A7E7B689B7F10461946FFF732
S1132E20BBFE30E07B689A7E7B689B7F1046194628
S1132E30FFF7E8FE27E07B6893F83130012B22D1BD
S1132E407B681B7D002B0FD11123FB73786801F085
S1132E50BDF907F10F0378681946012201F024F93E
S1132E60786801F0DDF90EE01323FB73786801F054
S1132E70ADF907F10F0378681946012201F014F93E
S1132E80786801F0CDF9002318461037BD4680BD9F
S1132E9080B483B000AF78607B6893F83230002B45
S1132EA014D17B681B680422DA6000BF7B681B684E
S1132EB01B6903F00203002BF8D07B681B687A6857
S1132EC01268526F42F002025A6720E07B6893F85E
S1132ED03230012B1BD100BF7B681B685B6C03F095
S1132EE00203002BF8D17B681B6804225A6000BFE0
S1132EF07B681B689B6803F00203002BF8D07B6897
S1132F001B687A681268526D42F002025A650C37E7
S1132F10BD465DF8047B704780B483B000AF786031
S1132F207B6893F83230002B0CD17B681B687A687D
S1132F301268526F22F002025A677B681B680822EB
S1132F40DA6018E07B6893F83230012B13D100BFAC
S1132F507B681B685B6C03F00203002BF8D17B6871
S1132F601B687A681268526D22F002025A657B6807
S1132F701B6808225A600C37BD465DF8047B704715
S1132F8080B485B000AFF860B9607A60FB68002B4C
S1132F9001D10A4B0CE0BB68002B06D07B68002BE8
S1132FA003D07B68B3F5006F01D9054B00E0002323
S1132FB018461437BD465DF8047B7047027000F074
S1132FC0037000F080B483B000AF786039607B6830
S1132FD01B688B4A934240F0B6803B681B7A002BF7
S1132FE025D03B681B7A012B1FD03B681B7A022B30
S1132FF019D03B681B7A032B13D03B681B7A042B34
S11330000DD03B681B7A052B07D03B681B7A062B37
S113301001D106230CE0FF230AE0022308E0012388
S113302006E0042304E0022302E0042300E0042376
S11330307A68D3753B685B7A002B25D03B685B7A52
S1133040012B1FD03B685B7A022B19D03B685B7A5B
S1133050032B13D03B685B7A042B0DD03B685B7A5F
S1133060052B07D03B685B7A062B01D106230CE0C5
S1133070FF230AE0022308E0012306E0042304E01E
S1133080022302E0042300E004237A6813763B68F9
S11330901B7A002B25D03B681B7A012B1FD03B6881
S11330A01B7A022B19D03B681B7A032B13D03B6885
S11330B01B7A042B0DD03B681B7A052B07D03B6889
S11330C01B7A062B01D10C230CE0FF230AE000231A
S11330D008E0072306E00D2304E00B2302E00723A6
S11330E000E00A237A68D3763B685B7A002B25D00C
S11330F03B685B7A012B1FD03B685B7A022B19D0AB
S11331003B685B7A032B13D03B685B7A042B0DD0AE
S11331103B685B7A052B07D03B685B7A062B01D1B1
S11331200D230CE0FF230AE0012308E0082306E056
S11331300C2304E00A2302E0062300E00B237A6850
S1133140137700F06DBC7B681B682E4A934240F0F5
S1133150B9803B681B7A002B25D03B681B7A012B76
S11331601FD03B681B7A022B19D03B681B7A032BB8
S113317013D03B681B7A042B0DD03B681B7A052BBC
S113318007D03B681B7A062B01D100230CE0FF23F8
S11331900AE0052308E0022306E0052304E00323F4
S11331A002E0032300E002237A68D3753B685B7A6C
S11331B0002B29D03B685B7A012B1FD03B685B7ADC
S11331C0022B19D03B685B7A032B13D03B685B7AE4
S11331D0042B0DD03B685B7A052B07D03B685B7AE8
S11331E0062B01D1002310E0FF230EE000230CE0A6
S11331F002230AE0052308E0032306E0032304E096
S1133200000001400004014002237A6813763B6801
S11332101B7A002B25D03B681B7A012B1FD03B68FF
S11332201B7A022B19D03B681B7A032B13D03B6803
S11332301B7A042B0DD03B681B7A052B07D03B6807
S11332401B7A062B01D10E230CE0FF230AE0022394
S113325008E0012306E0062304E0072302E000233C
S113326000E000237A68D3763B685B7A002B25D094
S11332703B685B7A012B1FD03B685B7A022B19D029
S11332803B685B7A032B13D03B685B7A042B0DD02D
S11332903B685B7A052B07D03B685B7A062B01D130
S11332A002230CE0FF230AE0002308E0022306E0E7
S11332B0072304E0062302E0012300E001237A68E7
S11332C01377ADE37B681B688C4A934240F09D8082
S11332D03B681B7A002B1FD03B681B7A012B19D04B
S11332E03B681B7A022B13D03B681B7A032B0DD04F
S11332F03B681B7A042B07D03B681B7A052B01D152
S113330005230AE0FF2308E0052306E0002304E088
S1133310002302E0012300E002237A68D3753B68AE
S11333205B7A002B1FD03B685B7A012B19D03B687A
S11333305B7A022B13D03B685B7A032B0DD03B687E
S11333405B7A042B07D03B685B7A052B01D10523FC
S11333500AE0FF2308E0052306E0002304E000233D
S113336002E0012300E002237A6813763B681B7AAB
S1133370002B1FD03B681B7A012B19D03B681B7AAA
S1133380022B13D03B681B7A032B0DD03B681B7AAE
S1133390042B07D03B681B7A052B01D100230AE0DC
S11333A0FF2308E0062306E00D2304E0072302E0E0
S11333B0032300E002237A68D3763B685B7A002B10
S11333C01FD03B685B7A012B19D03B685B7A022BD8
S11333D013D03B685B7A032B0DD03B685B7A042BDC
S11333E007D03B685B7A052B01D101230AE0FF2358
S11333F008E0072306E00E2304E0082302E0042388
S113340000E003237A6813770AE37B681B683C4A6D
S1133410934240F0A2803B681B7A002B1FD03B688C
S11334201B7A012B19D03B681B7A022B13D03B6803
S11334301B7A032B0DD03B681B7A042B07D03B6807
S11334401B7A052B01D108230AE0FF2308E0062399
S113345006E0062304E0012302E0042300E0002345
S11334607A68D3753B685B7A002B1FD03B685B7A24
S1133470012B19D03B685B7A022B13D03B685B7A33
S1133480032B0DD03B685B7A042B07D03B685B7A37
S1133490052B01D108230AE0FF2308E0062306E0F8
S11334A0062304E0012302E0042300E000237A68F9
S11334B013763B681B7A002B24D03B681B7A012BC4
S11334C019D03B681B7A022B13D03B681B7A032B61
S11334D00DD03B681B7A042B07D03B681B7A052B65
S11334E001D10C230FE0FF230DE000230BE00623A2
S11334F009E0032307E0062305E000BF00080140BC
S1133500000C014000237A68D3763B685B7A002B79
S11335101FD03B685B7A012B19D03B685B7A022B86
S113352013D03B685B7A032B0DD03B685B7A042B8A
S113353007D03B685B7A052B01D10D230AE0FF23FA
S113354008E0012306E0072304E0072302E0072341
S113355000E001237A68137762E27B681B68954A6E
S1133560934240F085803B681B7A002B19D03B685E
S11335701B7A012B13D03B681B7A022B0DD03B68BE
S11335801B7A032B07D03B681B7A042B01D107233A
S113359008E0FF2306E0082304E0082302E00323F5
S11335A000E001237A68D3753B685B7A002B19D05D
S11335B03B685B7A012B13D03B685B7A022B0DD0FE
S11335C03B685B7A032B07D03B685B7A042B01D101
S11335D0072308E0FF2306E0082304E0082302E0B1
S11335E0032300E001237A6813763B681B7A002BDF
S11335F019D03B681B7A012B13D03B681B7A022B32
S11336000DD03B681B7A032B07D03B681B7A042B35
S113361001D1042308E0FF2306E0062304E000238D
S113362002E0092300E007237A68D3763B685B7ADB
S1133630002B19D03B685B7A012B13D03B685B7A73
S1133640022B0DD03B685B7A032B07D03B685B7A77
S1133650042B01D1052308E0FF2306E0072304E03F
S1133660012302E00A2300E008237A681377D7E1F4
S11336707B681B68504A93426CD13B681B7A002BD1
S113368013D03B681B7A012B0DD03B681B7A022BAD
S113369007D03B681B7A032B01D1072306E0FF23E5
S11336A004E0052302E0002300E004237A68D375D4
S11336B03B685B7A002B13D03B685B7A012B0DD0FF
S11336C03B685B7A022B07D03B685B7A032B01D102
S11336D0072306E0FF2304E0012302E0002300E0C7
S11336E004237A6813763B681B7A002B13D03B685B
S11336F01B7A012B0DD03B681B7A022B07D03B6849
S11337001B7A032B01D10A2306E0FF2304E00F23D5
S113371002E0062300E008237A68D3763B685B7AEC
S1133720002B13D03B685B7A012B0DD03B685B7A8E
S1133730022B07D03B685B7A032B01D10B2306E0F5
S1133740FF2304E0012302E0072300E009237A6851
S1133750137765E17B681B68184A934240F0BB808D
S11337603B681B7A002B2BD03B681B7A012B1FD0A4
S11337703B681B7A022B19D03B681B7A032B13D0AE
S11337803B681B7A042B0DD03B681B7A052B07D0B2
S11337903B681B7A062B01D1032312E0FF2310E0C0
S11337A005230EE002230CE002230AE0002308E0D4
S11337B0042306E0001001400014014000400140D1
S11337C005237A68D3753B685B7A002B25D03B6868
S11337D05B7A012B1FD03B685B7A022B19D03B68C4
S11337E05B7A032B13D03B685B7A042B0DD03B68C8
S11337F05B7A052B07D03B685B7A062B01D1042347
S11338000CE0FF230AE0052308E0022306E002237C
S113381004E0002302E0042300E005237A68137621
S11338203B681B7A002B25D03B681B7A012B1FD0E9
S11338303B681B7A022B19D03B681B7A032B13D0ED
S11338403B681B7A042B0DD03B681B7A052B07D0F1
S11338503B681B7A062B01D107230CE0FF230AE007
S1133860012308E0042306E00E2304E0032302E01E
S1133870002300E006237A68D3763B685B7A002B4A
S113388025D03B685B7A012B1FD03B685B7A022B07
S113389019D03B685B7A032B13D03B685B7A042B0B
S11338A00DD03B685B7A052B07D03B685B7A062B0F
S11338B001D104230CE0FF230AE0022308E00523DE
S11338C006E00F2304E0042302E0012300E00723C1
S11338D07A681377A4E07B681B685D4A934240F0E2
S11338E09D803B681B7A002B1FD03B681B7A012B01
S11338F019D03B681B7A022B13D03B681B7A032B2D
S11339000DD03B681B7A042B07D03B681B7A052B30
S113391001D107230AE0FF2308E0042306E004237F
S113392004E0012302E0052300E002237A68D37552
S11339303B685B7A002B1FD03B685B7A012B19D064
S11339403B685B7A022B13D03B685B7A032B0DD068
S11339503B685B7A042B07D03B685B7A052B01D16B
S113396007230AE0FF2308E0042306E0042304E01D
S1133970012302E0052300E002237A6813763B6802
S11339801B7A002B1FD03B681B7A012B19D03B6894
S11339901B7A022B13D03B681B7A032B0DD03B6898
S11339A01B7A042B07D03B681B7A052B01D10B2310
S11339B00AE0FF2308E00C2306E0022304E00923C5
S11339C002E00A2300E00C237A68D3763B685B7A32
S11339D0002B1FD03B685B7A012B19D03B685B7AC4
S11339E0022B13D03B685B7A032B0DD03B685B7AC8
S11339F0042B07D03B685B7A052B01D10C230AE02A
S1133A00FF2308E00D2306E0032304E00A2302E079
S1133A100B2300E00D237A68137701E00D4B10E0CF
S1133A203B685A7C7B685A763B689A7C7B685A77F9
S1133A303B68DA7C7B689A763B681A7D7B689A7768
S1133A40002318460C37BD465DF8047B704700BF61
S1133A5000440140037000F080B584B002AF786088
S1133A600B46FB70FB78002B53D07B68DA7D7B68B8
S1133A70DB7E104619460422012302F07FFA7B689C
S1133A801A7E7B681B7F104619460222012302F02E
S1133A9075FA7B6893F83130022B20D17B685A7E0B
S1133AA07B685B7F104619460122002302F066FA08
S1133AB07B689A7E7B689B7F10461946042200230C
S1133AC002F05CFA7B685A7E7B685B7F19460123AF
S1133AD00093104601220123FFF7CAF86CE07B68CB
S1133AE093F83130032B67D17B685A7E7B685B7F08
S1133AF0104619460122002302F040FA7B689A7EA0
S1133B007B689B7F104619460422002302F036FA94
S1133B1052E07B68DA7D7B68DB7E10461946002222
S1133B20002302F02BFA7B681A7E7B681B7F104609
S1133B3019460022002302F021FA7B6893F8313001
S1133B40022B20D17B685A7E7B685B7F1046194626
S1133B500022002302F012FA7B689A7E7B689B7F26
S1133B60104619460022002302F008FA7B685A7EA8
S1133B707B685B7F194600230093104601220123D2
S1133B80FFF776F818E07B6893F83130032B13D1F4
S1133B907B685A7E7B685B7F1046194600220023AF
S1133BA002F0ECF97B689A7E7B689B7F104619468D
S1133BB00022002302F0E2F9002318460837BD462C
S1133BC080BD00BF80B485B000AF7860234B1B7804
S1133BD083F00103DBB2002B10D00023BB6007E0AD
S1133BE01F4ABB68002142F82310BB680133BB6045
S1133BF0BB68032BF4D9194B01221A700023FB7301
S1133C000023BB6017E0164ABB6852F82330002B30
S1133C1006D0134ABB6852F823207B689A4207D126
S1133C200F49BB687A6841F823200123FB7305E040
S1133C30BB680133BB60BB68032BE4D9FB7B83F017
S1133C400103DBB2002B01D0064B00E00023184631
S1133C501437BD465DF8047B704700BF2C07002075
S1133C6030070020027000F080B485B000AFF86027
S1133C70B9607A60FB68BA685A62FB685B6A0022C2
S1133C801A80FB685B6A00225A80FB685B6A002228
S1133C909A80FB68002283F82C20FB687A689A6279
S1133CA0FB689B6A00221A80FB689B6A00225A8088
S1133CB0FB689B6A00229A80FB68002283F82D200F
S1133CC0FB68002283F82F201437BD465DF8047B7F
S1133CD0704700BF80B582B000AF7860FCF7DCFEAF
S1133CE07B685B7F18460949FCF7E6FE7B68002287
S1133CF09A757B6800221A757B6802225A75786867
S1133D00FFF760F80837BD4680BD00BF252D0000D1
S1133D1080B582B000AF7860FCF78CFB7B6804331D
S1133D2018460021FCF734FB0346002B01D0094B55
S1133D300BE07B68083318460021FCF729FB034697
S1133D40002B01D0034B00E0002318460837BD4682
S1133D5080BD00BF0E7000F0B0B58AB000AF7860CF
S1133D603960984B07F108041D460FCD0FC495E840
S1133D70030084E803007B68002B01D1924B8EE1A1
S1133D803B68002B01D1914B89E1786800213422F2
S1133D9003F028FA7868FFF715FF78627B6A002B36
S1133DA001D07B6A7BE13B681A7C7B6883F8312015
S1133DB03B681A687B681A607B68002283F83220AB
S1133DC03B681B68824A93420AD17B68814A1A6223
S1133DD07B68814ADA607B684FF440221A6171E0A3
S1133DE03B681B687D4A93420AD17B687C4A1A620D
S1133DF07B687C4ADA607B684FF450221A6161E088
S1133E003B681B68784A93420AD17B68774A1A62F6
S1133E107B68774ADA607B684FF460221A6151E06C
S1133E203B681B68734A93420AD17B68724A1A62E0
S1133E307B68724ADA607B684FF470221A6141E051
S1133E403B681B686E4A93420AD17B686D4A1A62CA
S1133E507B686D4ADA607B684FF480121A6131E046
S1133E603B681B68694A93420AD17B68684A1A62B4
S1133E707B68684ADA607B684FF488121A6121E033
S1133E803B681B68644A93420AD17B68634A1A629E
S1133E907B68634ADA607B684FF490121A6111E020
S1133EA03B681B685F4A93420AD17B685E4A1A6288
S1133EB07B685E4ADA607B684FF498121A6101E00D
S1133EC0424BECE03B689A693B68DB6978681146D1
S1133ED01A46FFF7C9FE3B685B683B613B685B8938
S1133EE03B833B689B89FB823B689B7B3B753B68C0
S1133EF0DB7BBB7605237B754D48012100F084FDF7
S1133F004C48012100F080FD7B681B6A18460121A2
S1133F1000F07AFD00233B723B681A6807F108033E
S1133F201046194602F088FB3B681B6803225A6757
S1133F303B681A683B681B689B6F23F4E06323F0BB
S1133F4007033968097A09020B433968497A0B4334
S1133F50936778683968FFF735F878627B6A002BD5
S1133F6001D07B6A9BE078680121FFF775FD7862D8
S1133F707B6A002B01D07B6A91E001F04DFD386231
S1133F803B681B7C032B57D13B681B683A6812685B
S1133F90526F42F030025A673B681B683A681268F5
S1133FA0526E42F004025A663B681B683A6892F803
S1133FB0202011463A6892F8212012020A43DA6757
S1133FC041E000BF2C720000027000F0037000F0AA
S1133FD0000001400072040001000C0000040140D4
S1133FE00082040001000D0000080140009204005A
S1133FF001000E00000C014000A2040001000F00AB
S11340000010014000B2040001001000001401403F
S113401000C204000100110000400140004E0400F1
S11340200100120000440140005E0400010013007E
S113403040410500005508003B681B7C022B02D15F
S11340407868FFF747FE3B681B6818464FF0FF315E
S1134050FEF726FD3B681B7C032B06D13B681B68DF
S11340601846052102F09EFA05E03B681B681846D5
S1134070042102F097FA3B681B684FF44062DA604F
S1134080FCF7D8F97868FFF743FE7862386A01F0E4
S1134090D3FC7B6A002B01D07B6A00E00023184626
S11340A02837BD46B0BD00BF80B588B000AFF8600A
S11340B0B9607A60F868B9687A68FEF761FFB86138
S11340C0BB69002B01D0BB697CE0022001F0C2FC7B
S11340D00346FB7504E0FB7D002B01D0FCF7DEFA00
S11340E0FB689B6A9B889BB2002B05D0FB6893F806
S11340F02E30DBB2002BEED0FB6893F83230002B6D
S113410006D1FB681B681B6903F00203FB610DE029
S1134110FB6893F83230012B06D1FB681B689B685F
S113412003F00203FB6101E00023FB61FB69002B48
S113413002D1F868FEF7ACFEFB68012283F8302058
S1134140FB6893F83230002B18D109E0FB6819683A
S1134150BB685A1CBA601B780846194602F0F0FB8B
S11341607B685A1E7A60002BF0D100BFFB681B6885
S11341701B6903F02003002BF8D01CE0FB6893F8C4
S11341803230012B17D109E0FB681968BB685A1C4F
S1134190BA601B780846194602F012F97B685A1E69
S11341A07A60002BF0D100BFFB681B689B6803F0AA
S11341B00803002BF8D0FB69002B02D1F868FEF746
S11341C0ABFE002318462037BD4680BD80B582B0C3
S11341D000AF78607B68002B01D1104B1AE07B683C
S11341E093F82E30DBB2002B0AD17868FEF780FDFD
S11341F00346002B04D17B685B681846FCF7A0F9E2
S11342007B6893F82E30DBB20133DAB27B6883F833
S11342102E20002318460837BD4680BD027000F0EA
S113422080B582B000AF78607B68002B01D1144B5D
S113423022E07B6893F82E30DBB2002B1BD07B6826
S113424093F82E30DBB2012B0AD17868FEF750FDCB
S11342500346002B04D17B685B681846FCF7A4F97D
S11342607B6893F82E30DBB2013BDAB27B6883F8CB
S11342702E20002300E0034B18460837BD4680BDBE
S1134280027000F0057000F080B483B000AF786075
S113429039607B683A685A610C37BD465DF8047B27
S11342A0704700BF80B483B000AF78607B68DB6880
S11342B018460C37BD465DF8047B704780B582B064
S11342C000AF0948FFF7EEFF78607B6803F0100346
S11342D0002B06D004481021FFF7D6FF034B012220
S11342E01A700837BD4680BD008001404007002099
S11342F080B487B000AFF860B9607A60FB6803F1FE
S11343000473DA00BB6813449B007B617B697A68A1
S11343101A601C37BD465DF8047B704780B485B0D5
S113432000AF786039607B6803F10473DA003B689E
S113433013449B00FB60FB681B6818461437BD469A
S11343405DF8047B704700BF80B485B000AF78602F
S113435039607B6803F1C063FB60FB683A681A60EC
S11343601437BD465DF8047B704700BF80B485B048
S113437000AF786039607B6803F18063FB60FB68A1
S11343803A681A601437BD465DF8047B704700BF75
S113439080B483B000AF78607B68012202FA03F333
S11343A018460C37BD465DF8047B704780B500AFF6
S11343B000BF04481221FFF7B1FF0346002BF8D1D8
S11343C080BD00BF04300E4080B500AFFFF7EEFFA4
S11343D0034B5B6803F440331B0CDBB2184680BD0F
S11343E000300E4080B584B000AF78600123FB60DC
S11343F07B68124A934204D80023FB600023BB600D
S113440008E07B680E4A934202D80123BB6001E0B6
S11344100223BB600B481021FA68FFF769FF0949C2
S1134420084BD3F8003123F04072BB681B061343DA
S1134430C1F800311037BD4680BD00BF0048E80117
S11344400090D00300400E4080B483B000AF054B11
S11344501B687B607B6818460C37BD465DF8047B9F
S1134460704700BF2400002080B582B000AFFBF786
S11344701BFF7860064BD3F8003103F4F8531B0A92
S113448001337A6802FB03F318460837BD4680BD42
S113449000400E4080B582B000AF0D4800F0DEFC55
S11344A00346FB70FB78072B05D0092B07D1FBF7DC
S11344B0FBFE786006E0FFF7C7FF786002E00023A8
S11344C07B6000BF7B6818460837BD4680BD00BFCF
S11344D006000C0080B584B000AF78607B68002BC8
S11344E002D0012B06D00BE01E4800F0B7FC0346B7
S11344F0FB7207E01C4800F0B1FC0346FB7201E0CC
S113450000232AE0FB7A013B072B22D801A252F8B0
S113451023F000BF3545000053450000534500001B
S11345204345000053450000534500003B4500004F
S11345304B4500000023FB600EE0FFF785FFF860A9
S11345400AE0FBF7E9FEF86006E0FFF78DFFF8608C
S113455002E00023FB6000BFFB6818461037BD462D
S113456080BD00BF98002E009900300080B582B055
S113457000AF194800F072FC0346FB70FB78043B63
S1134580062B21D801A252F823F000BFB145000048
S1134590A9450000C9450000B9450000C94500000F
S11345A0C9450000C14500000C4B1B687B600EE050
S11345B0FBF7B2FE78600AE0FFF746FF786006E09A
S11345C0074B1B687B6002E000237B6000BF7B68B5
S11345D018460837BD4680BD0A7B32000C00002017
S11345E02800002080B584B000AF78607B68002B81
S11345F01AD11A4800F032FC0346FB7200BFFB7A62
S1134600043B062B22D801A252F823F035460000C1
S11346102D4600004D4600003D4600004D4600007A
S11346204D46000045460000002313E00C4B1B6878
S1134630FB600EE0FBF770FEF8600AE0FFF704FF92
S1134640F86006E0074B1B68FB6002E00023FB6098
S113465000BFFB6818461037BD4680BD0B7C340094
S11346600C0000202800002080B582B000AF214853
S113467000F0F4FB0346FB70FB78023B092B31D8B6
S113468001A252F823F000BFD5460000DD46000029
S1134690B9460000CD460000E5460000E5460000AE
S11346A0E5460000E5460000B1460000C1460000B2
S11346B0114B1B687B6018E0FBF72EFE786014E05A
S11346C0FBF72AFE03465B007B600EE00B4B1B6886
S11346D07B600AE0FBF750FE786006E0FBF738FEEB
S11346E0786002E000237B6000BF7B6818460837CF
S11346F0BD4680BD0C7F3600280000200C00002041
S113470080B487B000AF786039604FF080431B6C91
S1134710002B14BF01230023FB734FF0804341F6A9
S113472071321A644FF080435B6803F040737B611D
S113473000233B6113E01E4A3B69DB0013441B79F1
S11347401A463B689A4207D1194A3B6952F833200A
S11347507B689A4200D305E03B6901333B613B69C6
S1134760062BE8D93B69072B02D103237B6105E0C3
S11347700F4A3B69DB0013445B797B617B691B0651
S11347807B614FF080414FF080435B6823F04072BF
S11347907B6913434B60FB7B002B03D04FF08043BA
S11347A000221A641C37BD465DF8047B704700BFC5
S11347B05472000080B500AFFBF76CFD0346184649
S11347C00021FFF79DFF80BD80B584B000AF786005
S11347D039600B4BFB603B68022B01D1094BFB603A
S11347E07A68FB689A4204D907480849FFF7ACFD88
S11347F003E005480549FFF7B9FD1037BD4680BD04
S113480080D543020024F4000001004002020200AB
S113481080B582B000AF786039607B680A4A934201
S113482009D93B68002B06D14FF080404FF48051EA
S1134830FFF78AFD05E04FF080404FF48051FFF709
S113484095FD0837BD4680BD80F0FA0280B582B080
S113485000AF7860396078683968FFF751FF78688D
S11348603968FFF7B1FF78683968FFF7D1FF083777
S1134870BD4680BD80B400AF044B5B6A03F03003D7
S11348801846BD465DF8047B704700BF00400E40EB
S113489080B483B000AF78600649064B5B6A23F0AE
S11348A030027B6813434B620C37BD465DF8047BD2
S11348B0704700BF00400E4090B585B000AF7860EF
S11348C00023BB607B683D4A93420DD03B4A934230
S11348D003D83B4A934207D007E03A4A934203D0B5
S11348E0394A934200D000E000BF786800F0B6FA7D
S11348F00346FB607B68314A934214D02F4A9342AB
S113490003D82F4A934207D022E02E4A934211D073
S11349102D4A934215D01BE02C4BD3F8803003F082
S11349200703FB6014E0294BD3F8843003F007033A
S1134930FB600DE0254BD3F88C3003F00703FB60DC
S113494006E0224BD3F8883003F00703FB6000BF76
S1134950FB68042B2DD801A252F823F0AD490000C6
S1134960714900007949000089490000814900002B
S1134970FBF7EEFCB8601CE0FBF7FEFCB86018E047
S1134980FBF7F0FCB86014E0FBF762FC04460F4B45
S1134990D3F8003103F040731B0E01331846FFF7C0
S11349A0F7FC0346B4FBF3F3BB6002E00023BB60F7
S11349B000BFBB6818461437BD4690BD03001C00F9
S11349C002001A0004001E000500200000400E40F2
S11349D080B483B000AF78600A4BD3F8443103F05D
S11349E00103002B00D007E000BF064BD3F84021A1
S11349F07B681340002BF8D10C37BD465DF8047B6F
S1134A00704700BF00400E4080B586B000AF7860AC
S1134A100B46FB7000233B617B681B0A03F00F030A
S1134A20013B0E2B7CD801A252F823F0694A000006
S1134A30754A0000214B0000214B00006F4A000022
S1134A40814A00008B4A0000954A0000A14A0000F8
S1134A50F74A0000AD4A0000CF4A0000214B000095
S1134A607B4A0000F14A00002F4B7B6146E02F4B4C
S1134A707B6143E02E4B7B6140E02E4B7B613DE04C
S1134A802D4B7B6101233B6138E02C4B7B61102370
S1134A903B6133E02A4B7B614FF480733B612DE033
S1134AA0284B7B614FF480333B6127E0264B7B61CD
S1134AB0FB78002B14BF01230023DBB283F0010336
S1134AC0DBB2FB70FB7803F00103FB7016E01F4BB5
S1134AD07B61FB78002B14BF01230023DBB283F03E
S1134AE00103DBB2FB70FB7803F00103FB7005E00C
S1134AF0174B7B6102E0174B7B6100BF7B681B0B8C
S1134B0003F01F03FB603B69002B02D03869FFF7F9
S1134B105FFFFB787869F9681A46FFF7E9FB00E064
S1134B2000BF1837BD4680BD00400E40B0400E4067
S1134B30C0400E40C4400E40E0400E40E8400E40ED
S1134B40EC400E40F0400E4060410E4064410E4087
S1134B50F0410E4050410E4080B584B000AF786003
S1134B607B6803F47813B3F5C01F00F00581B3F537
S1134B70C01F31D8B3F5402F00F02A81B3F5402F80
S1134B8012D8B3F5802F62D0B3F5802F05D8002B4F
S1134B9059D0B3F5003F6DD04EE1B3F5002F65D089
S1134BA0B3F5202F75D047E1B3F5901F00F0948042
S1134BB0B3F5901F07D8B3F5602F00F00D81B3F55E
S1134BC0801F7AD038E1B3F5A01F00F08A80B3F5D6
S1134BD0B01F00F0BF802FE1B3F5301F00F0DF807D
S1134BE0B3F5301F16D8B3F5001F00F0EC80B3F511
S1134BF0001F07D8B3F5D01F5AD0B3F5E01F00F05B
S1134C00A48019E1B3F5181F7DD0B3F5281F00F077
S1134C108D8011E1B3F5481F00F00181B3F5481F01
S1134C2008D8B3F5381F00F0DB80B3F5401F00F05F
S1134C30E68001E1B3F5501F00F0F580B3F5581F8D
S1134C4000F0F680F8E0FBF72FFBF860F7E0FBF7E5
S1134C502BFBF8607C4BD3F80C217C4B13401B0AD4
S1134C600133FA68B2FBF3F3FB60E8E0FBF71CFBEB
S1134C70F860E4E0FBF718FBF860734BD3F8082105
S1134C80724B13401B0A0133FA68B2FBF3F3FB6067
S1134C90D5E0FBF709FBF8606B4BD3F8143103F450
S1134CA0F8531B0A0133FA68B2FBF3F3FB60C6E066
S1134CB06748FFF701FEF860C1E06548FFF7FCFDB7
S1134CC0F860614BD3F8203103F470231B0C1A46AF
S1134CD0FB68D340FB60B2E05E48FFF7EDFDF8608F
S1134CE0ADE05B48FFF7E8FDF860574BD3F820319F
S1134CF003F00F031846FFF74BFB0246FB68B3FBB8
S1134D00F2F3FB609BE05248FFF7D6FDF8604E4B90
S1134D10D3F8203103F4E0431B0B1846FFF738FBAC
S1134D200246FB68B3FBF2F3FB6088E04848FFF7F8
S1134D30C3FDF860444BD3F8203103F440731B0ADD
S1134D401A46FB68D340FB6079E04348FFF7B4FDA3
S1134D50F86074E04048FFF7AFFDF8603A4BD3F8D1
S1134D60283103F003031846FFF712FB0246FB68E1
S1134D70B3FBF2F3FB6062E03748FFF79DFDF86098
S1134D80314BD3F8283103F030031B091846FFF7E1
S1134D90FFFA0246FB68B3FBF2F3FB604FE02E48D8
S1134DA0FFF78AFDF860284BD3F8283103F4405309
S1134DB01B0B04331846FFF7EBFA0246FB68B3FB00
S1134DC0F2F3FB603BE02348FFF776FDF86036E042
S1134DD0FFF760FBF86032E0FFF736FBF8602EE087
S1134DE00020FFF777FBF860174BD3F85C3103F032
S1134DF003030133FA68B2FBF3F3FB601FE0012005
S1134E00FFF768FBF860104BD3F85C3103F44033D0
S1134E101B0C0133FA68B2FBF3F3FB600FE0FFF7FE
S1134E20A5FBF8600BE00020FFF7DCFBF86006E070
S1134E30FFF71AFCF86002E00023FB6000BFFB6888
S1134E4018461037BD4680BD00400E4000FF0100EB
S1134E5002001A000500200003001C0080B485B085
S1134E6000AF78600123FB737B6803F00F03BB6022
S1134E70BB68013B0B2B00F2408101A252F823F0E6
S1134E80B14E0000E34E0000134F0000FB50000041
S1134E90594F0000894F0000FB500000A94F00004B
S1134EA0E54F00002950000067500000A7500000A3
S1134EB0994BD3F8943003F00703032B07D0042B4A
S1134EC002D0022B06D008E00223FB7308E0032380
S1134ED0FB7305E00423FB7302E00523FB7300BFAF
S1134EE013E18D4BD3F8803003F00703022B06D077
S1134EF0042B07D0012B08D10323FB7308E0022302
S1134F00FB7305E00C23FB7302E00123FB7300BF7A
S1134F10FBE0814BD3F8843003F00703013B032B00
S1134F2016D801A252F823F0394F00003F4F000079
S1134F304B4F0000454F00000323FB730BE002239B
S1134F40FB7308E00C23FB7305E00623FB7302E00C
S1134F500123FB7300BFD8E06F4BD3F8883003F014
S1134F600703022B06D0042B07D0012B08D10323FF
S1134F70FB7308E00223FB7305E00C23FB7302E0E0
S1134F800123FB7300BFC0E0634B1B6F03F00303FB
S1134F90002B05D0012B00D0B7E00923FB7302E0FE
S1134FA00723FB7300BFB0E05B4BD3F85C3103F025
S1134FB03003102B0CD0102B02D8002B05D0A4E00A
S1134FC0202B08D0302B09D09FE00123FB7308E08D
S1134FD00723FB7305E00423FB7302E00823FB7340
S1134FE000BF92E04C4BD3F85C3103F44013B3F5AB
S1134FF0801F0FD0B3F5801F02D8002B07D084E0A8
S1135000B3F5001F09D0B3F5401F09D07DE001239B
S1135010FB7308E00723FB7305E00423FB7302E042
S11350200823FB7300BF70E03B4BD3F8603103F0FF
S11350300303032B64D801A252F823F04D5000005F
S113504053500000595000005F5000000523FB73CB
S113505008E00423FB7305E00723FB7302E00A2343
S1135060FB7300BF4CE02C4BD3F8643103F0030313
S1135070032B47D801A252F823F000BF8D50000043
S113508093500000995000009F5000000523FB73CB
S113509008E00423FB7305E00723FB7302E00A2303
S11350A0FB7300BF2EE01C4BD3F8F03103F0070371
S11350B0052B29D801A252F823F000BFD5500000D7
S11350C0DB500000E1500000E7500000ED5000000C
S11350D0F35000000A23FB730EE00423FB730BE080
S11350E00B23FB7308E00523FB7305E00223FB732A
S11350F002E00323FB7300BF06E00023FB7304E01C
S113510000BF02E000BF00E000BFFB7B184614377D
S1135110BD465DF8047B704700400E4080B58AB000
S113512000AF78600B46FB7003237B62032387F890
S113513023300023BB6100237B617B68112B19D1D1
S1135140FB78042B03D1FBF7E7F878610BE0FB78DD
S1135150052B08D100F08AFA0246C04B9A4202D9C4
S113516000F084FA78617B69002B03D07869002110
S113517000F036FD7B6803F00F033B613B69013BA4
S11351800B2B00F25E8201A252F823F0BD51000005
S11351908B520000B552000099520000A752000043
S11351A0555300004356000073530000E9530000B8
S11351B0815400000355000087550000FB78023B32
S11351C00A2B00F2408201A252F823F0F9510000A8
S11351D005520000115200002352000047560000FF
S11351E04756000047560000475600004756000047
S11351F0475600004756000004237B62002387F8CB
S1135200233017E003237B62012387F8233011E066
S113521002237B62022387F823309148FFF7E2F8E8
S113522008E001237B62032387F823308C48FFF7CF
S1135230D9F800BF97F8233018460121012200F065
S113524021FAFFF7B7FA7B69002B01D0FFF7AEF81C
S1135250844A7B6A53678448FFF77EFC03461846FA
S1135260FFF7C0F8FAF7F4FFF860FFF7ADF803466C
S1135270F8681946FFF7EAFA7B69002B04D100208D
S1135280012100F0ADFCEBE1EAE1BB69002B01D0A8
S1135290BB6900E0754BBB61BB69002B01D0BB69E6
S11352A000E0734BBB61BB69002B01D0BB6900E01C
S11352B0704BBB61BB69002B01D0BB6900E06E4B36
S11352C0BB61FB78013B0B2B00F2BF8101A252F8BA
S11352D023F000BF055300000B5300001B530000D4
S11352E04B5600004B5600002B5300004B56000059
S11352F04B5600004B5600004B5600004B56000026
S1135300475300000023FB6120E00020012101221B
S113531000F0B8F90223FB6118E001200121012209
S113532000F0B0F90123FB6110E0FAF791FF0346A6
S11353301846FFF757F8514800210122FEF7D8FF1D
S11353400323FB6102E00423FB6100BFBB69FA692C
S11353501A6085E1FB78072B02D0092B04D07FE18A
S1135360404B00221A6703E03E4B01221A6700BF3C
S113537076E1FB78013B072B00F2698101A252F828
S113538023F000BFA55300004F5600004F56000005
S1135390BB5300004F5600004F560000AB530000B3
S11353A0CB5300000023FB6112E004200121012201
S11353B000F068F90123FB610AE0022001210122C7
S11353C000F060F90223FB6102E00323FB6100BFEC
S11353D02449244BD3F85C3123F03002FB691B01D0
S11353E01343C1F85C313BE1FB78013B072B00F22E
S11353F0308101A252F823F01954000053560000E2
S1135400535600002F54000053560000535600001A
S11354101F5400003F5400000023FB6112E00420ED
S11354200121012200F02EF90123FB610AE0022090
S11354300121012200F026F90223FB6102E003238B
S1135440FB6100BF0749074BD3F85C3123F44012DA
S1135450FB691B051343C1F85C3101E1002D3101E7
S11354600148E80100400E400005080080400E405D
S11354708C400E4088400E4084400E40B0400E40A8
S1135480FB78043B062B00F2E68001A252F823F0DD
S1135490BD540000AD54000057560000CD54000028
S11354A05756000057560000DD5400000320012128
S11354B0012200F0E7F80023FB6117E0022001213C
S11354C0012200F0DFF80123FB610FE00420012139
S11354D0012200F0D7F80223FB6107E00520012137
S11354E0012200F0CFF80323FB6100BF5E495E4B4D
S11354F0D3F8603123F00302FB691343C1F8603130
S1135500AEE0FB78043B062B00F2A78001A252F820
S113551023F000BF41550000315500005B560000E8
S1135520515500005B5600005B56000061550000B9
S113553003200121012200F0A5F80023FB6117E0FC
S113554002200121012200F09DF80123FB610FE0FC
S113555004200121012200F095F80223FB6107E0F9
S113556005200121012200F08DF80323FB6100BF17
S11355703D493D4BD3F8643123F00302FB691343E7
S1135580C1F864316CE0FB78023B092B67D801A2B7
S113559052F823F00D5600001D560000CD550000B2
S11355A0FD5500005F5600005F5600005F56000086
S11355B05F560000BD550000DD55000005200121A7
S11355C0012200F05FF80023FB612FE0022001219B
S11355D0012200F057F80123FB6127E0FAF79CFE53
S11355E0214A214B5B6A43F00803536202200121E4
S11355F0012200F047F80223FB6117E00320012198
S1135600012200F03FF80323FB610FE00020012199
S1135610012200F037F80423FB6107E00120012197
S1135620012200F02FF80523FB6100BF0E490E4B49
S1135630D3F8F03123F00702FB691343C1F8F031CA
S11356400EE000BF0CE000BF0AE000BF08E000BFAE
S113565006E000BF04E000BF02E000BF00E000BFBE
S11356602837BD4680BD00BF00400E4080B400AF67
S1135670034B1B681846BD465DF8047B704700BFAA
S11356800C00002080B588B000AF0346FB710B46C8
S1135690BB7113467B71FB79052B00F2AE8001A22E
S11356A052F823F005570000F3560000CF560000CF
S11356B0BD560000E15600001B57000001237B612A
S11356C002233B610123FB610023BB6130E004231F
S11356D07B6108233B610323FB610223BB6127E059
S11356E010237B6120233B610523FB610423BB6101
S11356F01EE040237B6180233B610723FB6106237B
S1135700BB6115E04FF480737B614FF400733B6120
S11357100923FB610823BB610AE04FF480637B61CA
S11357204FF400633B610B23FB610A23BB6100BFA1
S1135730BB79002B55D00023FB73FB79022B11D1CD
S1135740FFF798F80346012B0CD12E4BDB6B01239A
S1135750FB732D4B5B6A03F00303032B02D102207E
S1135760FFF796F8284A7B69136600BF2748B96992
S1135770FEF7D4FD0346002BF8D07B79002B2FD005
S113578000BF2248F969FEF7C9FD0346002BF8D093
S1135790FB79022B24D1FB7B002B21D01A4B5B6AB3
S11357A003F00303032B03D00220002100F0E0F8F0
S11357B0022000F02DF8B860022000210122FFF73A
S11357C061FF0220B96800F05DF80F4A7B69136637
S11357D000BF0E48F969FEF7A1FD0346002BF8D07F
S11357E00CE0094A3B69136600BF0848B969FEF733
S11357F095FD0346002BF8D100E000BF2037BD46DD
S113580080BD00BF00300E4000400E4090400E406E
S113581080B485B000AF0346FB71FB79013B042BD8
S113582024D801A252F823F03D5800006D5800001E
S1135830495800006158000055580000104B1B6A7D
S1135840C3F30803FB6014E00D4B1B6903F07F03F3
S1135850FB600EE00A4B9B6803F07F03FB6008E0EB
S1135860074B9B6903F07F03FB6002E00023FB60AE
S113587000BFFB6818461437BD465DF8047B7047CB
S113588000400E4080B582B000AF03463960FB7122
S1135890FB79013B042B63D801A252F823F000BF2B
S11358A0B558000061590000E35800003759000062
S11358B00D5900003B68C3F308033B6000BF2A484E
S11358C01A21FEF72BFD0346002BF8D12749274B5D
S11358D01B6A23F4FF7323F001033A6813430B623A
S11358E03FE03B6803F07F033B6000BF1E48182184
S11358F0FEF714FD0346002BF8D11C491B4B1B6912
S113590023F07F023B6813430B612AE03B6803F0FA
S11359107F033B6000BF14481E21FEF7FFFC0346D3
S1135920002BF8D11149114B9B6823F07F023B688F
S113593013438B6015E03B6803F07F033B6000BFBB
S113594009481921FEF7EAFC0346002BF8D1074960
S1135950064B9B6923F07F023B6813438B6100E095
S113596000BF0837BD4680BD40410E4000400E4098
S113597080B584B000AF03460A46FB711346BB7181
S1135980FEF778FF0346012B03D14FF48003FB603D
S113599008E0BB79002B03D14FF48003FB6001E0E6
S11359A0074BFB6000BF074BD3F89020FB681A40FD
S11359B0FB689A42F7D1012318461037BD4680BDD3
S11359C0FF3F473A00400E4080B483B000AF034627
S11359D0FB7197F90730002B0ADA0D4AFB7903F0C3
S11359E00F03043B13441B7EDBB25B09DBB208E00C
S11359F0084A97F90730134493F80033DBB25B0984
S1135A00DBB218460C37BD465DF8047B704700BF17
S1135A1000ED00E000E100E080B483B000AFEFF3FC
S1135A2010833B603B687B6072B67B6818460C371A
S1135A30BD465DF8047B704780B483B000AF7860E6
S1135A407B68002B00D162B60C37BD465DF8047B41
S1135A50704700BF80B588B000AF0346FB7197F96B
S1135A60073013F10C0F04DB97F90730452B00DCEA
S1135A7000BFEFF310833B613B6903F00103002B8C
S1135A8001D0012336E097F90730184600F038F8C2
S1135A900346002B01D001232CE097F90730184668
S1135AA0FFF792FFF861EFF31183FB60FB68BB61C2
S1135AB0BB69002B06D0BB695A09FB699A4201D81D
S1135AC0012317E00D4B5B68C3F308037B617B691B
S1135AD0002B0ED07B69DBB2103BDBB2DBB25BB2D6
S1135AE01846FFF771FF0246FB699A4201D8012369
S1135AF000E0002318462037BD4680BD00ED00E0DD
S1135B0080B485B000AF0346FB7197F90730002BD2
S1135B1004DB97F90730452B00DC00BF0D4BFB601D
S1135B2097F907305B11DBB25AB2FB6853F82230A5
S1135B30FA7902F01F02012101FA02F21340002B4C
S1135B400CBF01230023DBB218461437BD465DF8B1
S1135B50047B704700E100E080B485B000AF78605A
S1135B6039607B6803F10473DA003B6813449B00DB
S1135B70FB60FB681B6818461437BD465DF8047B60
S1135B80704700BF80B500AF00BF04481221FFF783
S1135B90E3FF0346002BF8D180BD00BF04300E4064
S1135BA080B500AFFFF7EEFF034B5B6803F44033AF
S1135BB01B0CDBB2184680BD00300E4080B483B0AD
S1135BC000AF0346FB71FB79C3F102031A461023AD
S1135BD0934018460C37BD465DF8047B704700BF00
S1135BE080B584B000AF78600B46FB70154BD3F8DA
S1135BF0003103F4F8531B0A0133BB607B68002BAC
S1135C0007D1FAF751FB0246BB6803FB02F3FB60C2
S1135C1001E07B68FB600C4B1B78002B09D0FB6810
S1135C200A4A934205D8FB780220194600F010F87E
S1135C3004E0FB780020194600F00AF81037BD464E
S1135C4080BD00BF00400E4044070020FF2C3101FE
S1135C5090B587B000AF03460A46FB711346BB718B
S1135C601A4BD3F8003103F4F8531B0A01337B6158
S1135C70FAF71AFB3861FFF793FF0346FB73FA7BCD
S1135C80FB799A4200D11EE03B697A6902FB03F377
S1135C90BB60FB79022B03D138690221FEF7D6FDE4
S1135CA00B4CFB791846FFF789FF03462361FB7908
S1135CB0002B03D138690021FEF7C8FDBB79002B06
S1135CC001D0FFF75FFF1C37BD4690BD00400E407A
S1135CD000300E4080B487B000AFF860B9607A60DD
S1135CE0FB6803F10473DA00BB6813449B007B6117
